:100000000C947E1B0C94AF1B0C94AF1B0C94AF1B79
:100010000C94AF1B0C94AF1B0C94AF1B0C94AF1B38
:100020000C94AF1B0C94AF1B0C94AF1B0C94AF1B28
:100030000C94AF1B0C9465CC0C94AF1B0C94AF1BB1
:100040000C94AF1B0C940A2A0C94AF1B0C94AF1B9E
:100050000C94AF1B0C94AF1B0C94A1280C94CEDF16
:100060000C94AF1B0C944A7F0C94435F0C94AF1B11
:100070000C94AF1B0C94AF1B0C94AF1B0C94AF1BD8
:100080000C94AF1B0C94AF1B0C94AF1B0C94AF1BC8
:100090000C94AF1B0C94AF1B0C94AF1B0C94AF1BB8
:1000A0000C94AF1B0C94AF1B0C94AF1B0C94AF1BA8
:1000B0000C94AF1B0C94AF1B0C94AF1B0C94AF1B98
:1000C0000C94AF1B0C94AF1B0C94AF1B0C94AF1B88
:1000D0000C94AF1B0C94AF1B0C948A3A0C944B3AC3
:1000E0000C94AF1B084AD73B3BCE016E84BCBFFDCE
:1000F000C12F3D6C74319ABD56833DDA3D00C77FF8
:1001000011BED9E4BB4C3E916BAAAABE0000008090
:100110003F05A84CCDB2D44EB93836A9020C50B91F
:10012000918688083CA6AAAA2ABE000000803F004B
:100130000C94ABCD0C94C9D30C9431DD0C9458DFE6
:100140000C94E07F0C9440DA0C94BFB20C94CD7FF9
:100150000C94ADB20C9484D20C94A7B20C948DDBA9
:100160000C94E47F0C9492B20C943DB20C94BBB20C
:100170000C9442DB0C94C8B20C94D9DA0C94D47F62
:100180000C94CCE90C9408CE0C94CDB20C94C7CD51
:100190000C9414210C94FAD90C946FD40C948FCD38
:1001A0000C94BCD20C9478CD0C94F4CD0C94B5B2D4
:1001B0000C94EC7F0C94D1D20C94C27F0C9437D267
:1001C0000C94A3B20C9476DD0C94C9B20C94C820A4
:1001D0000C94B3CD0C94D1CD0C9496B20C94ECDC71
:1001E0000C9412CE0C94EFD80C94EACD0C9488D9D0
:1001F0000C94E2E00C9436210C9464D30C94C3B2BA
:100200000C94FECD0C948EB20C9458D90C94E0CD85
:100210000C9465210C94B1B20C94F5D20C94847FAB
:100220000C9463DF0C949FD20C94B37F0C9480CD1C
:100230000C949AB20C949DB20C94EEDA0C9485CD89
:100240000C944F210C948BD90C94BDCD0C94A3CD60
:100250000C948CDA0C94DC7F0C9469D20C9499CDBC
:100260000C94B5DA0C94AEDD0C9488B20C94D87F63
:100270000C9404D90C9409214E414E494E495459CD
:10028000494E46CDCCCC3D0AD7233C17B7D1387761
:10029000CC2B329595E6241FB14F0A000020410077
:1002A00000C84200401C4620BCBE4CCA1B0E5AAEC1
:1002B000C59D74434F4D4D554E49434154494F4E92
:1002C0000044525952554E004552524F5253004924
:1002D0004E464F004543484F004572726F7220777B
:1002E000726974696E6720746F20454550524F4D96
:1002F000210A00363726032B3C3D382A2E303E1289
:1003000024221E1A1C1808440A2C430809072C072B
:100310000001627573793A207061757365642066B7
:100320006F7220696E7075740A00627573793A2075
:1003300070617573656420666F7220757365720AEB
:1003400000627573793A2070726F63657373696EBA
:10035000670A005446542053657269616C204465F5
:100360006275673A2046696C616D656E74207275BE
:100370006E6F75742E2E2E204A31350A004A3135A3
:10038000002044454255473A204149334D205061B1
:100390007573652053746174653A20004445425575
:1003A000473A20333030306D732064656C617920BA
:1003B000646F6E650A005446542053657269616C1F
:1003C0002044656275673A2046696C616D656E749C
:1003D0002072756E6F7574207265636F76657265D5
:1003E000640A0044454255473A20536574206669C3
:1003F0006C616D656E7420747269676765722074D4
:10040000696D650A005072696E7465722073746F4D
:10041000707065642064756520746F206572726FFA
:1004200072732E2046697820746865206572726F39
:100430007220616E6420757365204D3939392074DE
:100440006F20726573746172742E202854656D700C
:100450006572617475726520697320726573657465
:100460002E20536574206974206166746572207251
:10047000657374617274696E67290A004E6F204358
:100480006865636B73756D2077697468206C696E3D
:1004900065206E756D6265722C204C617374204C02
:1004A000696E653A20004E6F20436865636B737513
:1004B0006D2077697468206C696E65206E756D6259
:1004C00065722C204C617374204C696E653A200073
:1004D000636865636B73756D206D69736D617463BB
:1004E000682C204C617374204C696E653A20004C76
:1004F000696E65204E756D626572206973206E6F3E
:1005000074204C617374204C696E65204E756D6269
:1005100065722B312C204C617374204C696E653AE6
:1005200020004D31313000534420726561642065F4
:1005300072726F720A002121204B494C4C2063617A
:100540007573656420627920746F6F206D756368C0
:1005500020696E6163746976652074696D65202D0C
:100560002063757272656E7420636F6D6D616E6469
:100570003A20006563686F3A004572726F723A0004
:1005800053656E64204D31303820746F207265736E
:10059000756D650A00496E736572742066696C61D9
:1005A0006D656E7420616E642073656E64204D31DC
:1005B00030380A002044454255473A204E544F20D7
:1005C0002D204149334D205061757365205374616E
:1005D00074652073657420746F3A200053656E64EF
:1005E000204D31303820746F2068656174206E6F43
:1005F0007A7A6C650A002044454255473A204E54A9
:100600004F202D204149334D205061757365205393
:10061000746174652073657420746F3A2000486FAC
:1006200074656E6420746F6F20636F6C640A004998
:100630006E736572742066696C616D656E7420619D
:100640006E642073656E64204D3130380A0020449A
:10065000454255473A204E544F202D204149334DB5
:1006600020506175736520537461746520736574DF
:1006700020746F3A20000A4D6561737572656420BD
:10068000706F696E74733A0A00357835206D657342
:10069000682E205A206F66667365743A2000576191
:1006A0006974696E6720666F722068656174757021
:1006B0002E0A003F53706563696669656420582C93
:1006C0005920636F6F7264696E617465206F757411
:1006D000206F6620626F756E64732E0A003F285289
:1006E0002965706561742076616C7565206E6F7424
:1006F00020706C61757369626C653B206D757374F5
:10070000206265206174206C6561737420312E0A4B
:10071000003F2852296570656174206D75737420DF
:1007200062652073706563696669656420776865D2
:100730006E206E6F74207573696E6720616E204C39
:1007400043442E0A003F53706563696669656420FF
:100750006E6F7A7A6C652074656D70657261747500
:100760007265206E6F7420706C61757369626C6560
:100770002E0A003F53706563696669656420666987
:100780006C616D656E742073697A65206E6F74207C
:10079000706C61757369626C652E0A003F537065F9
:1007A000636966696564207072696D65206C656E49
:1007B000677468206E6F7420706C61757369626C09
:1007C000652E0A003F5072696D65206C656E677416
:1007D00068206D7573742062652073706563696647
:1007E000696564207768656E206E6F742075736923
:1007F0006E6720616E204C43442E0A003F537065A3
:10080000636966696564206E6F7A7A6C65207369C6
:100810007A65206E6F7420706C61757369626C65A7
:100820002E0A003F496E76616C69642052657472CD
:10083000616374696F6E2F556E7265747261637453
:10084000696F6E20726174696F2E204D757374200C
:1008500062652077697468696E20356D6D2E0A00B7
:1008600020556E72657472616374696F6E20616D7C
:100870006F756E74206175746F6D61746963616CFE
:100880006C792073657420746F20003F556E72651B
:100890007472616374696F6E206C656E6774682032
:1008A0006D75737420626520737065636966696530
:1008B000642E0A003F53706563696669656420555C
:1008C0006E72657472616374696F6E206C656E67B9
:1008D0007468206E6F7420706C61757369626C65EA
:1008E0002E0A003F52657472616374696F6E206CEA
:1008F000656E677468206D7573742062652073700F
:10090000656369666965642E0A003F5370656369B3
:10091000666965642052657472616374696F6E20E4
:100920006C656E677468206E6F7420706C6175738F
:1009300069626C652E0A003F53706563696669657C
:1009400064206C6179657220686569676874206EDF
:100950006F7420706C61757369626C652E0A004358
:10096000292E0A003F5370656369666965642062D9
:1009700065642074656D7065726174757265206E52
:100980006F7420706C61757369626C6520283430F7
:100990002D00473236207374617274696E672E2E93
:1009A0002E0A004F46460A00466164652048656984
:1009B0006768742000426564204C6576656C696EDA
:1009C0006720004661696C656420746F20656E6104
:1009D000626C6520426564204C6576656C696E6763
:1009E0000A004D65736820426564204C6576656C2D
:1009F00020646174613A0A00496E76616C69642012
:100A00006D6573682E0A00206E6F7420656E7465C4
:100A10007265642E0A0047323800206F6620004D50
:100A2000424C2047323920706F696E742000290AC9
:100A3000004A206F7574206F662072616E676520B2
:100A400028302D00290A0049206F7574206F662018
:100A500072616E67652028302D004D6573682070C7
:100A6000726F62696E6720646F6E652E0A00537440
:100A7000617274206D6573682070726F62696E6751
:100A8000207769746820224732392053312220664A
:100A9000697273742E0A004732380A47323920537C
:100AA0003200686173206E6F20646174612E0A00E9
:100AB0004D65736820426564204C6576656C696E8F
:100AC00067200053206F7574206F662072616E6717
:100AD000652028302D35292E0A00486F74656E6414
:100AE00020746F6F20636F6C640A00444542554761
:100AF0003A205365742054465473746174652074AD
:100B00006F20534450415553455F5245510A0044AC
:100B1000454255473A20456E746572204D36303057
:100B200020544654737461746520726F7574696ED5
:100B3000650A002044454255473A204D3630302062
:100B40002D204149334D20506175736520537461E8
:100B500074652073657420746F3A200020496E76A6
:100B6000616C6964206578747275646572200047F1
:100B7000322F47332062616420706172616D657449
:100B80006572730A004D65736820706F696E74201A
:100B900063616E6E6F74206265207265736F6C7630
:100BA00065640A00456E642066696C65206C697333
:100BB000740A00426567696E2066696C65206C691D
:100BC00073740A00286E6F2066696C65290043758E
:100BD0007272656E742066696C653A200053442019
:100BE0007072696E74696E67206279746520004E58
:100BF0006F74205344207072696E74696E670A00C6
:100C00002E0A0044656C6574696F6E206661696CBC
:100C100065642C2046696C653A200046696C652045
:100C200064656C657465643A005072696E74207412
:100C3000696D653A2000496E76616C69642050697F
:100C40006E204D6F64650A000A53746174733A2014
:100C500046696C616D656E7420757365643A200039
:100C60002C204C6F6E67657374206A6F623A2000A7
:100C7000546F74616C2074696D653A20005374611F
:100C800074733A20002C204661696C65643A200038
:100C90002C2046696E69736865643A200050726959
:100CA0006E74733A200053746174733A2000544692
:100CB000542053657269616C2044656275673A20FF
:100CC0004E6F7A7A6C652069732068656174696E0D
:100CD000672E2E2E204A30360A004A3036005446FF
:100CE000542053657269616C2044656275673A20CF
:100CF0004265642068656174696E67206973206469
:100D00006F6E652E2E2E204A30390A004A30390087
:100D10006F6B006F666600D402CF02C802C102B3D7
:100D20000244454255473A004D3131332053005477
:100D300046542053657269616C2044656275673A58
:100D4000204265642069732068656174696E672E4E
:100D50002E2E204A30380A004A3038004348414D90
:100D60004245525F54454D504552415455524500FD
:100D70004D4F54494F4E5F4D4F44455300544845E5
:100D8000524D414C5F50524F54454354494F4E00D1
:100D90004155544F5245504F52545F53445F535442
:100DA000415455530050524F4D50545F535550507D
:100DB0004F525400454D455247454E43595F5041AF
:100DC0005253455200434153455F4C494748545F95
:100DD0004252494748544E45535300544F47474C9D
:100DE000455F4C494748545300534F46545741526E
:100DF000455F504F574552004255494C445F50455E
:100E00005243454E54004C4556454C494E475F446D
:100E1000415441005A5F50524F4245004155544F92
:100E20004C4556454C005052494E545F4A4F420083
:100E300050524F4752455353004155544F5245501D
:100E40004F52545F54454D5000564F4C554D4554EC
:100E500052494300454550524F4D0042494E415280
:100E6000595F46494C455F5452414E5346455200E6
:100E700053455249414C5F584F4E5F584F464600CC
:100E80004649524D574152455F4E414D453A4D619D
:100E9000726C696E20322E302E352E33202864611C
:100EA00076696472616D69726F2C20476974687528
:100EB0006229204D41524C494E2D4149334D5F56D8
:100EC000455253494F4E3A76322E302E3120534FF1
:100ED000555243455F434F44455F55524C3A687401
:100EE0007470733A2F2F6769746875622E636F6D23
:100EF0002F646176696472616D69726F2F4D6172E2
:100F00006C696E2D4169334D2D322E302E78205074
:100F1000524F544F434F4C5F56455253494F4E3AF0
:100F2000312E30204D414348494E455F545950457C
:100F30003A416E796375626963206933204D656754
:100F4000612045585452554445525F434F554E54C5
:100F50003A3120555549443A6365646532613266D9
:100F60002D343161322D343734382D396231322D00
:100F70006335356336326633363766660A002F2F9F
:100F80002000205200416363656C65726174696F73
:100F90006E3A2050003F4A206F7574206F662072B1
:100FA000616E67652028302E303120746F20302E1E
:100FB00033290A004F4646004F4E0020580020209B
:100FC0004D61783A2000200020204D696E3A2000C3
:100FD000536F667420656E6473746F70733A20008B
:100FE00046523A0020466C6F773A200050726F7478
:100FF00065637465642050696E0A0020643A0020BD
:10100000693A0020703A00496E76616C6964206527
:10101000787472756465720A0020643A0020693A37
:101020000020703A0064697300656E0043290A006D
:1010300061626C656420286D696E2074656D702036
:1010400000436F6C64206578747275646573206109
:10105000726520004D65736820706F696E7420633F
:10106000616E6E6F74206265207265736F6C766559
:10107000640A004D34323120696E636F72726563A9
:101080007420706172616D6574657220757361673B
:10109000650A00546F6F206661722066726F6D2062
:1010A0007265666572656E636520706F696E740A3D
:1010B00000454550524F4D204F4B0A00205A323ABE
:1010C000004475616C20456E6473746F70204164D8
:1010D0006A7573746D656E7420286D6D293A2000F1
:1010E0004D38383820636F6F6C646F776E20726F85
:1010F0007574696E6520646F6E650A00546172676D
:101100006574206E6F7420726561636865642C205D
:1011100071756575656420616E206172630A0055A2
:101120006C7472616261736520636F6F6C646F775A
:101130006E20737461727465640A002E0A002028A0
:10114000302D313029002076616C7565206F757403
:10115000206F662072616E676500416476616E6320
:1011600065204B3D00446F6E65207072696E746936
:101170006E672066696C650A004D3737004D333164
:1011800000220A00656E7175657565696E672022BB
:10119000006F6B00526573656E643A2000436170A6
:1011A0003A002569730025696D202569730025695A
:1011B000682025696D2025697300256964202569EB
:1011C000682025696D2025697300256979202569C6
:1011D00064202569682025696D20256973002364D2
:1011E0006566696E652044454641554C545F000074
:1011F000626564004B6420004B6920004B70200046
:10120000504944204175746F74756E652066696E2F
:101210006973686564212050757420746865206C5A
:10122000617374204B702C204B6920616E64204BDD
:101230006420636F6E7374616E74732066726F6D79
:101240002062656C6F7720696E746F20436F6E66E5
:10125000696775726174696F6E2E680A005049443F
:10126000204175746F74756E65206661696C656484
:10127000212074696D656F75740A005049442041DE
:1012800075746F74756E65206661696C6564212084
:1012900054656D706572617475726520746F6F202E
:1012A000686967680A00204B643A2000204B693A5D
:1012B0002000204B703A20000A20436C6173736950
:1012C0006320504944200A00204B643A2000204B00
:1012D000693A2000204B703A20000A204E6F206FA0
:1012E00076657273686F6F740A002054753A200037
:1012F000204B753A2000206D61783A2000206D69FE
:101300006E3A200020643A200020626961733A201E
:1013100000504944204175746F74756E6520737474
:101320006172740A00504944204175746F74756E7F
:1013300065206661696C6564212054656D70657215
:10134000617475726520746F6F20686967680A0040
:10135000504944204175746F74756E6520666169EB
:101360006C656421204261642065787472756465DF
:1013700072206E756D6265720A00000057430000AE
:10138000574300004D430000A0C0000000000000D3
:101390000000290A002062797465733B2063726340
:1013A000200053657474696E67732053746F72659F
:1013B00064202800454550524F4D2064617461738C
:1013C000697A65206572726F722E0A00290A002000
:1013D00062797465733B2063726320002073746FBD
:1013E0007265642073657474696E677320726574C6
:1013F000726965766564202800202863616C6375D6
:101400006C6174656429210A0020213D2000454556
:1014100050524F4D20435243206D69736D61746388
:1014200068202D202873746F726564292000205372
:10143000697A653A2000496E6465783A2000204D4B
:1014400061726C696E3D563736290A004545505227
:101450004F4D2076657273696F6E206D69736D6193
:101460007463682028454550524F4D3D00486172D5
:1014700064636F6465642044656661756C742053B1
:10148000657474696E6773204C6F616465640A00EB
:1014900000001644000016440000C84200007042DC
:1014A0000000A0420000A0420000C8433333B9420C
:1014B000B80B0000D0070000C80000001027000093
:1014C0003B200020204D36303320002055004C00BA
:1014D00046696C616D656E74206C6F61642F756E0A
:1014E0006C6F6164206C656E677468733A002020CD
:1014F0004D393030204B004C696E6561722041647B
:1015000076616E63653A0020440020490020204D3A
:1015100033303420500020440020490020204D3337
:1015200030312050005049442073657474696E67EF
:10153000733A0020204D36363600456E6473746F62
:10154000702061646A7573746D656E743A00202052
:10155000473239205334205A00204A002020473295
:101560003920533320490020204D3432302053009D
:101570004D65736820426564204C6576656C696EC4
:10158000673A0020204D323036205800486F6D6594
:10159000206F66667365743A00204A00205300206D
:1015A000204D323035204200416476616E636564BF
:1015B0003A20423C6D696E5F7365676D656E745F5E
:1015C00074696D655F75733E20533C6D696E5F662F
:1015D000656564726174653E20543C6D696E5F742C
:1015E000726176656C5F66656564726174653E20E4
:1015F0004A3C6A756E635F6465763E002054002045
:10160000520020204D323034205000416363656C1D
:1016100065726174696F6E2028756E6974732F73BB
:1016200032293A20503C7072696E745F6163636561
:101630006C3E20523C726574726163745F616363D7
:10164000656C3E20543C74726176656C5F616363C7
:10165000656C3E0020204D3230312058004D6178BD
:10166000696D756D20416363656C65726174696F46
:101670006E2028756E6974732F7332293A0020200A
:101680004D3230332058004D6178696D756D20669C
:1016900065656472617465732028756E6974732F53
:1016A00073293A0053746570732070657220756EEB
:1016B00069743A0020204D3230302044300A002036
:1016C000204D3230302044002044697361626C65E3
:1016D000640A0046696C616D656E7420736574748C
:1016E000696E67733A0020286D6D2900202047320B
:1016F00031202020203B20556E69747320696E20B4
:101700006D6D006F70656E005452494747455245F4
:1017100044003A20007A325F6D696E007A5F6D692D
:101720006E00795F6D696E00785F6D696E0052655D
:10173000706F7274696E6720656E6473746F702069
:101740007374617475730A0020746F6F206C6F6E10
:101750006720657874727573696F6E207072657634
:10176000656E7465640A0020636F6C64206578742C
:10177000727573696F6E2070726576656E746564DC
:101780000A000000A0C000000000000000000000EF
:10179000484200004842000070415761726E696E15
:1017A000673A20486F6D696E672042756D702044FE
:1017B000697669736F72203C20310A0002020400CE
:1017C00000A0400000A0400000004000005C43007A
:1017D00000574300004D43FFFFFF000000010000E1
:1017E00000010000800055555500000040003333D3
:1017F0003300AAAA2A004992240000002000C771E1
:101800001C0099991900D1451700555515003BB199
:1018100013002449120011111100000010000F0FD5
:101820000F00E3380E0043790D00CCCC0C00C33020
:101830000C00E8A20B0064210B00AAAA0A00703D6C
:101840000A009DD80900427B090092240900DCD3DC
:101850000800888808001042080000000800F0C155
:1018600007008787070075500700711C07003EEBD3
:101870000600A1BC06006990060066660600703E80
:1018800006006118060017F4050074D105005BB06E
:101890000500B290050062720500555505007839C3
:1018A0000500B81E0500050505004EEC040087D4B0
:1018B0000400A1BD040090A7040049920400C17D6A
:1018C0000400EE690400C7560400444404005C327E
:1018D00004000821040041100400000004003FF04F
:1018E0000300F8E0030026D20300C3C30300CCB515
:1018F00003003AA803000A9B0300388E0300C0814E
:1019000003009F750300D0690300505E03001D5360
:10191000030034480300913D0300333303001629CC
:101920000300381F030097150300300C0300030366
:1019300003000BFA020049F10200BAE802005CE081
:1019400002002DD802002DD0020059C80200B0C0FC
:10195000020031B90200DAB10200AAAA0200A0A373
:101960000200BC9C0200FA9502005C8F0200DF8836
:10197000020082820200457C020027760200277066
:101980000200436A02007C640200D05E02003F59FC
:101990000200C8530200FFFDFCFAF8F6F4F2F0EE84
:1019A000ECEAE9E7E5E3E1E0DEDCDAD9D7D5D4D249
:1019B000D0CFCDCBCAC8C7C5C3C2C0BFBDBCBAB9E2
:1019C000B7B6B4B3B2B0AFADACAAA9A8A6A5A4A24D
:1019D000A1A09E9D9C9A99989795949392908F8E92
:1019E0008D8B8A8988878684838281807F7E7D7BB8
:1019F0007A797877767574737271706F6E6D6C6BBF
:101A00006A696867666564636261605F5E5D5C5BAE
:101A10005A5958585756555453525150504F4E4D8D
:101A20004C4B4A4A49484746464544434242414056
:101A30003F3E3E3D3C3B3B3A39383837363535340E
:101A40003332323130302F2E2E2D2C2B2B2A2929B8
:101A500028272726252524232322212120201F1E55
:101A60001E1D1C1C1B1B1A191918181716161515E4
:101A700014131312121111100F0F0E0E0D0D0C0C6A
:101A80000B0A0A09090808070706060505040403E6
:101A900003020201000024F4D43050C38E20C2A2FD
:101AA0004017828B7011127A910D816CD90AA8614E
:101AB000E108C7586607615143061E4B5D05C145E5
:101AC000A7041A411104093D9803713931034036C6
:101AD000DB0265339102D4305402802E1D02632C48
:101AE000EE01752AC501B028A001102781018F25BC
:101AF00064012B244B01E0223401AC211F018D2015
:101B00000D01801FFC00841EED00971DDF00B81C36
:101B1000D200E61BC600201BBC00641AB200B2193A
:101B2000A8000A19A0006A189900D117910040175F
:101B30008B00B516840031167E00B31579003A1576
:101B40007300C7146F0058146A00EE136600881300
:101B5000630025135E00C7125B006C12570015125C
:101B60005400C111510070114F0021114B00D610CB
:101B700049008D1047004610440002104200C00F7B
:101B80004000800F3E00420F3C00060F3B00CB0E92
:101B90003800930E37005C0E3500270E3400F30D2D
:101BA0003200C10D3100900D3000600D2E00320D5D
:101BB0002D00050D2C00D90C2B00AE0C2900850C36
:101BC00029005C0C2700350C27000E0C2600E80BC2
:101BD0002400C40B2400A00B23007D0B23005A0B10
:101BE0002100390B2100180B2000F80A1F00D90A28
:101BF0001E00BB0A1E009D0A1D00800A1D00630A0C
:101C00001C00470A1B002C0A1B00110A1A00F709C6
:101C10001A00DD091900C4091900AB09190092095D
:101C200017007B091800630917004C0916003609D4
:101C30001600200916000A091500F5081500E0082D
:101C40001400CC081400B8081400A408140090086C
:101C500013007D0812006B08130058081200460894
:101C600012003408110023081100120811000108A5
:101C70001100F0071000E0071000D0071000C007A7
:101C80001000B0070F00A107100091070E00830796
:101C90000F0074070F0065070E0057070E00490775
:101CA0000E003B070D002E070E0020070D00130746
:101CB0000D0006070D00F9060C00ED060D00E0060C
:101CC0000C00D4060C00C8060C00BC060C00B006C4
:101CD0000C00A4060B0099060C008D060B00820672
:101CE0000B0077060B006C060B0061060A00570616
:101CF0000B004C060A0042060A0038060A002E06AF
:101D00000A0024060A001A060A001006090007063F
:101D10000A00FD050900F4050900EB050900E205CC
:101D20000900D9050900D0050900C7050900BE054D
:101D30000900B5050800AD050800A50509009C05CA
:101D40000800940508008C050800840508007C053F
:101D50000800740508006C050700650508005D05AE
:101D60000700560508004E05070047050700400517
:101D7000080038050700310507002A05070023057C
:101D800007001C050600160507000F0507000805DB
:101D9000060002050700FB040600F5040700EE0438
:101DA0000600E8040600E2040700DB040600D50490
:101DB0000600CF040600C9040600C3040600BD04E3
:101DC0000600B7040600B1040500AC040600A60432
:101DD0000600A00405009B0406009504050090047D
:101DE00006008A04050085040500800406007A04C4
:101DF000050075040500700405006B040500660409
:101E00000500610405005C04050057040500520448
:101E100005004D04050048040500430405003E0488
:101E200004003A04050035040500300404002C04C5
:101E3000050027040400230405001E0404001A04FE
:101E4000040016040500110404000D040400090434
:101E500005000404040000040400FC030400F8036B
:101E60000400F4030400F0030400EC030400E8039E
:101E70000400E4030400E0030400DC030400D803CE
:101E80000400D4030400D0030400CC030400C803FE
:101E90000300C503030024F404D9201BC40C5C0E0A
:101EA0009804C4095F0265077101F405F900FB0499
:101EB000B30048048700C1036900580355000303B9
:101EC0004500BE023A008402310053022A00290272
:101ED000250004022000E4011C00C8011900AF0124
:101EE00017009801140084011300710110006101B2
:101EF000100051010E0043010D0036010B002B01B3
:101F00000B0020010B00150109000C010900030161
:101F10000800FB000800F3000800EB000700E400E5
:101F20000600DE000600D8000600D2000600CC0045
:101F30000500C7000500C2000500BD000400B9008F
:101F40000400B5000400B1000400AD000400A900C5
:101F50000400A5000300A20003009F0004009B00F2
:101F60000300980003009500020093000300900016
:101F700003008D0002008B00030088000200860031
:101F8000020084000300810002007F0002007D0047
:101F900002007B0002007900020077000100760059
:101FA00002007400020072000100710002006F0064
:101FB00002006D0001006C0002006A00010069006F
:101FC0000200670001006600010065000100640076
:101FD00002006200010061000100600001005F007A
:101FE00002005D0001005C0001005B0001005A007E
:101FF000010059000100580001005700010056007F
:10200000010055000100540001005300000053007E
:1020100001005200010051000100500001004F007A
:1020200001004E0000004E0001004D0001004C0078
:1020300001004B0000004B0001004A000100490074
:102040000100480000004800010047000100460070
:10205000000046000100450000004500010044006A
:102060000100430000004300010042000000420064
:1020700001004100000041000100400001003F005C
:1020800000003F0001003E0000003E0001003D0056
:1020900000003D0001003C0000003C0000003C004E
:1020A00001003B0000003B0001003A0000003A0044
:1020B000010039000000390001003800000038003C
:1020C0000000380001003700000037000100360032
:1020D0000000360000003600010035000000350029
:1020E000000035000100340000003400000034001E
:1020F0000100330000003300000033000100320013
:102100000000320000003200010031000000310008
:1021100000003100010030000000300000003000FD
:1021200001002F0000002F0000002F0000002F00F2
:1021300001002E0000002E0000002E0001002D00E6
:1021400000002D0000002D0000002D0001002C00DB
:1021500000002C0000002C0000002C0001002B00CF
:1021600000002B0000002B0000002B0001002A00C3
:1021700000002A0000002A0000002A0001002900B7
:1021800000002900000029000000290000002900AB
:10219000010028000000280000002800000028009E
:1021A0000000280001002700000027000000270091
:1021B0000000270000002700010026000000260084
:1021C0000000260000002600000026000100250077
:1021D000000025000000250000002500000025006B
:1021E000000025000100240000002400000024005D
:1021F0000000240000002400010023000000230050
:102200000000230000002300000023000000230042
:102210000000230001002200000022000000220034
:102220000000220000002200000022000100210026
:10223000000021000000210000002100000021001A
:10224000000021000000210001002000000020000B
:1022500000002000000020000000200000002000FE
:10226000000020000000200001001F0000001F00EF
:1022700000001F0000001F0000001F0000001F00E2
:1022800000001F0001001E0000001E0000001E00D4
:1022900000001E000000232C0000B8220000561889
:1022A00000003A0F0000B8080000B10400007102FD
:1022B00000003E01000020436F756E7420583A0004
:1022C00000626564002C2073797374656D207374EB
:1022D0006F7070656421204865617465725F494460
:1022E0003A200048656174696E67204661696C65D3
:1022F000640048656174696E67206661696C656435
:102300000070012C0190012701B0012201C0011DC4
:1023100001F00118011002130130020E01600209E0
:102320000190020401C002FF000003FA004003F51F
:10233000008003F000D003EB002004E6007004E10D
:1023400000E004DC004005D700C005D2004006CD07
:1023500000D006C8008007C3003008BE00F008B9EE
:1023600000C009B400B00AAF00B00BAA00D00CA5A1
:1023700000000EA000500F9B00C01096005012915C
:102380000000148C00C0158700B0178200B0197DC2
:1023900000D01B7800001E730040206E0090226960
:1023A00000F024640040275F0090295A00E02B557C
:1023B00000102E500020304B0010324600E0334118
:1023C0000090353C001037370070383200A0392DAE
:1023D00000B03A2800A03B2300603C1E00103D19CD
:1023E00000903D1400103E0F00703E0A00C03E05F4
:1023F00000003F0000403FFBFF803FF6FFC03FF181
:10240000FF544845524D414C2052554E4157415979
:1024100000546865726D616C2052756E61776179E8
:10242000004572723A204D415854454D50004D417F
:102430005854454D50207472696767657265640031
:102440004572723A204D494E54454D50004D494E0B
:1024500054454D5020747269676765726564004D1C
:10246000383420582059205A204500202F0020427F
:10247000403A0020403A0020573A0020573A00499D
:102480006E76616C69642065787472756465720A31
:10249000007C3C3E5E2B3D3F2F5B5D3B2C2A225C4B
:1024A0000043616E6E6F74206F70656E207375628D
:1024B000646972200053442063617264206F6B0A68
:1024C000006F70656E526F6F74206661696C656431
:1024D0000A00766F6C756D652E696E697420666191
:1024E000696C65640A00534420696E6974206661F2
:1024F000696C0A0046696C652073656C6563746578
:10250000640A002053697A653A200046696C6520A8
:102510006F70656E65643A2000454E442053554205
:10252000524F5554494E450A002220706F730022C5
:1025300020706172656E743A2200535542524F55B5
:1025400054494E452043414C4C2074617267657478
:102550003A2200747279696E6720746F2063616C2F
:102560006C207375622D67636F64652066696C65A6
:1025700073207769746820746F6F206D616E7920A5
:102580006C6576656C732E204D4158206C657665C0
:102590006C2069733A310A0057726974696E67205A
:1025A000746F2066696C653A20002E0A006F7065B2
:1025B0006E206661696C65642C2046696C653A2002
:1025C000001000C90210012C014001220170011805
:1025D00001B0010E01F00104015002FA00B002F056
:1025E000003003E600D003DC009004D2007005C880
:1025F00000A006BE000008B400B009AA00D00BA0DD
:1026000000600E960060118C000015820020197881
:1026100000C01D6E00A0226400B0275A00902C500C
:102620000000314600E0343C0010383200903A2877
:1026300000603C1E00A03D1400803E0A00203F00C8
:1026400000667265736800646F696E670020666972
:102650006C653A20004E6F772000000021002400B6
:1026600027002A002D003000330001010000040182
:1026700007010A0100002200250028002B002E007F
:102680003100340002010000050108010B010000C7
:1026900020002300260029002C002F00320000011A
:1026A00000000301060109010505050507050808E5
:1026B0000808020202020A0A0808040404040101CC
:1026C00001010101010103030303030303030407E1
:1026D00007070C0C0C0C0C0C0C0C02020202060678
:1026E0000606060606060B0B0B0B0B0B0B0B01026B
:1026F0001020200808102040102040800201020114
:1027000008040201010204081020408080402010CB
:102710000804020180040201804020100804020124
:10272000080402010102040810204080010204088C
:102730001020408000000A0B02090C0D0E08070350
:102740000401000000000000000000000000000084
:102750000000000000000000000000000000000079
:102760001211100000000000000000000000000036
:1027700000000000000000000000025446542053F6
:10278000657269616C2044656275673A2046696CC0
:10279000616D656E742072756E6F75742E2E2E20AD
:1027A0004A31350A004A3135004A3132004A313760
:1027B000002020506C616E6E6572427566666572AF
:1027C00042797465733A20002046726565204D6534
:1027D0006D6F72793A2000436F6D70696C65643A71
:1027E000204F637420313620323032310A00204CC1
:1027F00061737420557064617465643A20323032BC
:10280000302D30332D3331207C20417574686F7248
:102810003A2028646176696472616D69726F290A71
:102820000076322E302E310A004D61726C696E2DA9
:102830004149334D00322E302E352E330A004D6182
:10284000726C696E0020536F6674776172652052F6
:10285000657365740A00205761746368646F67204C
:1028600052657365740A002042726F776E206F752F
:10287000742052657365740A002045787465726E21
:10288000616C2052657365740A00506F77657255EC
:10289000700A0073746172740A004D3234004D3254
:1028A00033202573006175746F25632E67004732EE
:1028B000385859004D31303031006572726F7220D6
:1028C00077726974696E6720746F2066696C650A37
:1028D00000446F6E6520736176696E672066696C6F
:1028E000652E0A004D323900205A3A0020593A002C
:1028F00020583A00656E6473746F70732068697451
:102900003A2000220A00556E6B6E6F776E20636F5F
:102910006D6D616E643A202200204500205A00202F
:102920005900204D393220580020453A00205A3AAB
:102930000020593A00583A0044454255473A204A47
:1029400032332053686F772066696C616D656E74F1
:102950002070726F6D70740A004A32330020444553
:102960004255473A204149334D20506175736520E7
:1029700053746174653A200044454255473A204DEE
:1029800032352073656E742C207061726B696E67CE
:10299000206E6F7A7A6C650A004D323500444542EC
:1029A00055473A2046696C616D656E742072756E8C
:1029B0006F7574202D20526574726163742C2062CF
:1029C00065657020616E64207061726B2E0A00472D
:1029D000393000473120452D332046313830300022
:1029E0004739310044454255473A2046696C616D8C
:1029F000656E742052756E6F7574205061757365C5
:102A00000A0044454255473A20526567756C617229
:102A10002050617573650A002044454255473A20AD
:102A20004149334D2050617573652053746174655D
:102A30003A200043616E6E6F7420656E746572207B
:102A40007375626469723A200044454255473A20E2
:102A50004D3630302050617573652063616C6C6554
:102A6000640A004D363030002044454255473A2034
:102A70004149334D2050617573652053746174650D
:102A80003A20005370656369616C204D656E753A3C
:102A90002046696C616D656E744368616E67652080
:102AA000526573756D650A005370656369616C20CA
:102AB0004D656E753A2046696C616D656E7443684C
:102AC000616E67652050617573650A004739310A88
:102AD0004731205A2D302E310A4739300053706566
:102AE0006369616C204D656E753A205A20446F779A
:102AF0006E20302E310A004739310A4731205A2DD5
:102B0000302E30320A473930005370656369616C8A
:102B1000204D656E753A205A20446F776E20302E16
:102B200030320A004739310A4731205A2B302E30D3
:102B3000320A473930005370656369616C204D6516
:102B40006E753A205A20557020302E30320A0047D8
:102B500039310A4731205A2B302E310A473930009B
:102B60005370656369616C204D656E753A205A201B
:102B7000557020302E310A0047323920533200532D
:102B800070656369616C204D656E753A204E65789D
:102B900074204D65736820506F696E740A00473267
:102BA00039205331005370656369616C204D656E47
:102BB000753A205374617274204D657368204C65BA
:102BC00076656C696E670A004D31343020533630BB
:102BD000005370656369616C204D656E753A2050D5
:102BE000726568656174204265640A004D35303253
:102BF000005370656369616C204D656E753A204CB9
:102C00006F61642046572044656661756C74730A71
:102C1000004D353030005370656369616C204D653F
:102C20006E753A205361766520454550524F4D0AE6
:102C3000004D33303320452D31205336302043367C
:102C4000205531005370656369616C204D656E7568
:102C50003A204175746F2054756E6520486F746218
:102C60006564205069640A004D313036205332309B
:102C7000340A4D3330332045302053323130204335
:102C80003135205531005370656369616C204D65A5
:102C90006E753A204175746F2054756E6520486FCB
:102CA00074656E64205049440A00204445425547EB
:102CB0003A204E544F20646F6E652C204149334DAD
:102CC0002050617573652053746174653A20004427
:102CD000454255473A20436C65617220666C6167D6
:102CE000730A0044454255473A20526573756D6535
:102CF0002068656174696E670A004D3130380044A0
:102D0000454255473A2053656E6420726568656197
:102D100074204D3130380A003C5370656369616C32
:102D20005F4D656E753E003C5370656369616C5F15
:102D30004D656E753E002F002F002F002F2E2E0A9E
:102D4000002F2E2E002F2E2E003C537065636961DC
:102D50006C5F4D656E753E0A003C5370656369613A
:102D60006C204D656E753E003C5370656369616C07
:102D7000204D656E753E003C46696C616D656E74F4
:102D80004368616E676520526573756D653E003CF2
:102D900046696C616D656E744368616E676520524B
:102DA0006573756D653E003C46696C616D656E745A
:102DB0004368616E67652050617573653E003C46EF
:102DC000696C616D656E744368616E676520506102
:102DD0007573653E003C4C6F616420465720446526
:102DE0006661756C74733E003C4C6F61642046579D
:102DF0002044656661756C74733E003C4175746F68
:102E00002054756E6520486F746265642050494493
:102E10003E003C4175746F2054756E6520486F7498
:102E2000626564205049443E003C4175746F2054F3
:102E3000756E6520486F74656E64205049443E008D
:102E40003C4175746F2054756E6520486F74656ED3
:102E500064205049443E003C457869743E003C453E
:102E60007869743E003C5361766520454550524F69
:102E70004D3E003C5361766520454550524F4D3ED6
:102E8000003C4E657874204D65736820506F696E04
:102E9000743E003C4E657874204D65736820506F19
:102EA000696E743E003C5374617274204D657368A2
:102EB000204C6576656C696E673E003C53746172A8
:102EC00074204D657368204C6576656C696E673E4D
:102ED000003C50726568656174206265643E003C28
:102EE00050726568656174206265643E003C5A20DA
:102EF000446F776E20302E313E003C5A20446F776D
:102F00006E20302E313E003C5A20446F776E2030C8
:102F10002E30323E003C5A20446F776E20302E30E7
:102F2000323E003C5A20557020302E30323E003C5C
:102F30005A20557020302E30323E003C5A205570B9
:102F400020302E313E003C5A20557020302E313E2C
:102F50000056313136004A33332000544654205352
:102F6000657269616C2044656275673A205344203C
:102F70006361726420696E697469616C697A656401
:102F80002E2E2E204A30320A004A30320054465447
:102F90002053657269616C2044656275673A20430D
:102FA0006F6F6C696E6720646F776E2E2E2E204ACD
:102FB00031320A004A3132004731205A3130004F55
:102FC0004B004731205A313000473930004731201B
:102FD0004525694635303000473120452D302E31AA
:102FE0004625690047312045302E31462569004786
:102FF00031205A2569462569004731205A2D302E47
:1030000031462569004731205A302E314625690066
:1030100047312059256946256900473120592D300F
:103020002E314625690047312059302E3146256919
:103030000047312058256946256900473120582D21
:10304000302E314625690047312058302E31462533
:1030500069004739310047323800473238205A007A
:103060004732382059004732382058004132305614
:1030700020004731205A31300054465420536572A5
:1030800069616C2044656275673A2053746172749B
:10309000696E67205344205072696E742E2E2E2064
:1030A0004A30340A004A3034002044454255473AF9
:1030B000204149334D20506175736520537461740C
:1030C000653A20005446542053657269616C20446F
:1030D000656275673A2046696C65206F70656E2081
:1030E0006661696C65642E2E2E204A32310A004AD0
:1030F0003231005446542053657269616C20446536
:103100006275673A2046696C65206F70656E207342
:1031100075636365737366756C2E2E2E204A32308C
:103120000A004A3230002044454255473A2041497E
:10313000334D2050617573652053746174653A2076
:10314000004A3136005446542053657269616C2040
:1031500044656275673A205344207072696E74202A
:10316000737461727465642E2E2E204A30340A0006
:103170004A3034002044454255473A204149334DB6
:103180002050617573652053746174653A20004561
:103190004E4400464E20004A3032003939393A391F
:1031A0003939004D0048004137562000413656203D
:1031B0002D2D2D004A30320041365620005A3A203B
:1031C00000593A2000583A20004135560041345603
:1031D0002000413356200041325620004131562014
:1031E0000041305620005446542053657269616C8A
:1031F00020436F6D6D616E643A2000204445425556
:10320000473A204149334D2050617573652053740E
:103210006174653A20004D3237004D383400444522
:103220004255473A20534453544F503A205061720C
:103230006B2058590A0044454255473A205344539D
:10324000544F503A205061726B205A0A004739316E
:103250000A473120452D312046313830300A473970
:1032600030002044454255473A204149334D2050D3
:10327000617573652053746174653A200054465437
:103280002053657269616C2044656275673A20530A
:1032900044207072696E742073746F707065642E50
:1032A0002E2E204A31360A004A3136005446542028
:1032B00053657269616C2044656275673A205344B6
:1032C000207072696E742070617573656420646F1C
:1032D0006E652E2E2E204A31380A004D31323520AF
:1032E0004C320044454255473A20526567756C613F
:1032F00072205061757365207265717565737465B0
:10330000640A002044454255473A204149334D2044
:1033100050617573652053746174653A20004A31B9
:1033200038002044454255473A204149334D20500A
:10333000617573652053746174653A200054465476
:103340002053657269616C2044656275673A205349
:1033500044207072696E7420646F6E652E2E2E206C
:103360004A31340A004A31340054465420536572BD
:1033700069616C2044656275673A2053442063613B
:10338000726420696E7365727465642E2E2E204AF5
:1033900030300A004A303000544654205365726978
:1033A000616C2044656275673A2053442063617202
:1033B000642072656D6F7665642E2E2E204A303142
:1033C0000A004A3031005446542053657269616CDA
:1033D0002044656275673A20486F74656E64207496
:1033E000656D70657261747572652061626E6F7271
:1033F0006D616C2E2E2E204A32300A004A31300088
:1034000044454255473A204D313038205265737556
:103410006D6520646F6E650A0044454255473A2049
:103420004D31303820526573756D652063616C6C69
:1034300065640A004D3130380044454255473A2012
:103440004E6F7A7A6C652074696D656F757420664D
:103450006C616720636C65617265640A0044454273
:1034600055473A2053657420506175736520616734
:1034700061696E2062656361757365206F66207493
:10348000696D656F75740A0044454255473A204E90
:103490006F7A7A6C652074696D656F757420666CDF
:1034A000616720636C65617265640A00444542553A
:1034B000473A2053657420506175736520616761D8
:1034C000696E2062656361757365206F662074693B
:1034D0006D656F75740A0044454255473A20466948
:1034E0006C616D656E7420506175736520466C610A
:1034F0006720636C65617265640A00444542554704
:103500003A204D323420526573756D652066726FB6
:103510006D2046696C616D656E742052756E6F75B5
:10352000740A004D32340044454255473A204669FA
:103530006C616D656E74204368616E676520466CD2
:10354000616720636C65617265640A004445425599
:10355000473A205374617274204D31303820726FB5
:103560007574696E650A002044454255473A20410A
:1035700049334D2050617573652053746174653A09
:1035800020002044454255473A204149334D2050C0
:10359000617573652053746174653A200044454237
:1035A00055473A204D323420526573756D6520665B
:1035B000726F6D20726567756C61722070617573D2
:1035C000650A002044454255473A204149334D2081
:1035D00050617573652053746174653A20004D32F3
:1035E000340044454255473A20526567756C617214
:1035F0002053746172740A002044454255473A20B2
:103600004149334D20506175736520537461746571
:103610003A200020746F6F206C6F6E67206578749D
:10362000727573696F6E2070726576656E7465640D
:103630000A0020636F6C6420657874727573696F1B
:103640006E2070726576656E7465640A00486F6DF1
:1036500065202573257325732046697273740020D5
:1036600044454255473A204149334D2050617573D6
:10367000652053746174653A200044454255473AC9
:103680002053746F7070656420616E6420636C6594
:10369000617265640A002E0A006F70656E206661B3
:1036A000696C65642C2046696C653A200054465468
:1036B0002053657269616C2044656275673A204BDE
:1036C000696C6C20636F6D6D616E642E2E2E204AC6
:1036D00031310A004A3131005072696E74657220CE
:1036E00068616C7465642E206B696C6C282920639A
:1036F000616C6C6564210A00E2E0CCE911241FBE14
:10370000CFEFD1E2DEBFCDBF00E00CBF14E0A0E000
:10371000B2E0E8EEFDEE01E00BBF02C007900D92B3
:10372000AC33B107D9F72BE1ACE3B4E001C01D9293
:10373000A439B207E1F71BE1CDE7DBE100E006C009
:1037400021970109802FFE010E944FF6CC37D10747
:1037500080E00807A9F70E9488E20C94E2F60C9436
:10376000000080911016909111168635910554F441
:1037700081E020913E0C30913F0C263031051CF445
:1037800080E0089581E00895CF93DF93C0ECD2E20A
:1037900020E030E048E452E460910C1670910D1680
:1037A00080910E1690910F160E9467F587FF17C043
:1037B00080E0FE01C49120910B0190E0B0E0A0E018
:1037C00004C0B695A79597958795CA95D2F780FDC1
:1037D0000EC0207220930901DF91CF910895FE0160
:1037E000949181E001C0880F9A95EAF7E2CF209585
:1037F000F0CFEF92FF920F931F93E0924904F09263
:103800004A0400934B0410934C0460934D0470934E
:103810004E0480934F049FEFFF27621B730B840BB2
:1038200030F4809570956195790B890B9927909369
:103830004804A6E06A9F00923C04512DEE277A9F2F
:10384000500DE11D8A9FE00D50933D04E0933E042E
:10385000AFE06A9F00924004512DEE277A9F500DF1
:10386000E11D8A9FE00D50934104E0934204AAE0D9
:103870006A9F00924404512DEE277A9F500DE11D5E
:103880008A9FE00D50934504E09346041F910F91E9
:10389000FF90EF9008959F92AF92BF92CF92DF92E8
:1038A000EF92FF920F931F93CF93DF9300D01F925D
:1038B0001F92CDB7DEB7E6E9F9E10027BB27462F17
:1038C000572FA82FAA2341F4A52F542FB85FAA235E
:1038D00019F4A52F5527B85FA03138F45295A29559
:1038E000452F4F70507FA42BBC5FA03428F4550F98
:1038F000AA1F550FAA1FBE5FA03818F4550FAA1FA4
:10390000B395550FAA1FEA0FF01F449151E0AA2763
:10391000B85081F1C8F0B0FF02C0440F551FB1FF8D
:1039200004C0440F551F440F551FB2FF06C05295E7
:103930004295142F1F70407F512BB3FF1BC0A52F42
:10394000542F44270C94BA1CB195B0FF02C0559572
:103950004795B1FF04C05595479555954795B2FFDA
:1039600005C05295407F4295452B5F70B3FF02C062
:10397000452F5527DD24CC24BB24B2E0649FD0180A
:10398000C108B00AB00B749FC018B108B00B849F77
:10399000B018B109659FC018B108B00B759FB01879
:1039A000B109859FB0196A9FB018B1097A9FB01903
:1039B0004D9DA12C99243327992722275D9DA00C8A
:1039C000911C301F901F201FAD9D900C311D901F2A
:1039D000201F4C9DA00C911C301F901F201F5C9D30
:1039E000900C311D901F201FAC9D300D911D201F8C
:1039F0004B9D900C311D901F201F5B9D300D911D24
:103A0000201FAB9D900D211D4B9F300D911D201F40
:103A10005B9F900D211DAB9F200DB1E0BB24CC24FA
:103A2000DD24639FD018C108B00AB00B739FC01883
:103A3000B108B00B839FB018B109699FC018B108D5
:103A4000B00B799FB018B109899FB019629FB01867
:103A5000B109729FB019D61AC70AB80A20F0B1E0AE
:103A60003B0F901F201F1124792F632F90E0822F8E
:103A70000F900F900F900F900F90DF91CF911F91AB
:103A80000F91FF90EF90DF90CF90BF90AF909F90FD
:103A90000895CF92DF92EF92FF9280914D06882396
:103AA00009F457C0C0905206D0905306E0905406D7
:103AB000F090550620E030E0A901C701B6010E9450
:103AC000B0EE882309F445C020E030E040E05FE339
:103AD000C701B6010E9416EF9B01AC010E9416EFD0
:103AE0002BED3FE049E450E40E9416EF9B01AC014E
:103AF00060E070E080E89FE30E9401F46B017C01CC
:103B0000C0924E06D0924F06E0925006F0925106B7
:103B10006091340270913502072E000C880B990BCE
:103B20000E94B7EE2AE037ED43E25CE30E9416EF15
:103B3000A70196010E9416EF60936F0270937002C6
:103B40008093710290937202FF90EF90DF90CF907C
:103B50000895C12CD12C80E8E82E8FE3F82ED0CF29
:103B600080917B1690917C16891B8F7019F490E0E0
:103B700080E0089590917816992351F0833030F4C5
:103B80008FEF890F19F080937816F1CF1092781685
:103B900080917C1622E6829FC00111248258934FA7
:103BA000FC01208120FDE3CF20917C162F5F2F7038
:103BB0002093791630917C1620917A16321304C026
:103BC0002091791620937A1608952F923F924F9262
:103BD0005F926F927F928F929F92AF92BF92CF929D
:103BE000DF92EF92FF920F931F93CF93DF93CDB7A6
:103BF000DEB764970FB6F894DEBF0FBECDBF7A8BE9
:103C0000698BDC018D909D90AD90BC9013971496BC
:103C10002D913D914D915C9117972D833E834F835C
:103C2000588720E030E040E251E4C501B4010E9431
:103C300006F321E83AE048EA5CE30E9416EF0E94AE
:103C400073F464300CF427C163E0E62E660FFF08BE
:103C5000F701EE0FFF1FEE0FFF1FE352F64E4080FD
:103C60005180628073801701BFEF2B1A3B0A20E05E
:103C700030E040E251E46D817E818F8198850E9421
:103C800006F321E83AE048EA5CE30E9416EF0E945E
:103C900073F464300CF403C163E0062F660F110B5C
:103CA000F801EE0FFF1FEE0FFF1FE352F64E2081CB
:103CB00031814281538129833A834B835C83A801FC
:103CC0004F5F5F4F5C8B4B8BA5E0AE9DC001AF9DFE
:103CD000900D11249A878987FC01E00FF11FEE0FE8
:103CE000FF1FEE0FFF1FE751FA4FC080D180E28027
:103CF000F380F101EE0FFF1FEE0FFF1FE352F64EB0
:103D0000A301920160817181828193810E9406F3F7
:103D10006B877C878D879E87A3019201C501B401C3
:103D20000E9406F32B013C0125E0229DF001239D1A
:103D3000F00D1124F88BEF87E00FF11FEE0FFF1F3E
:103D4000EE0FFF1FE751FA4FA701960160817181C5
:103D5000828193810E9406F32B853C854D855E858B
:103D60000E9401F4A30192010E9416EFA70196019F
:103D70000E9407F36B017C01E985FA854B895C8918
:103D8000E40FF51FEE0FFF1FEE0FFF1FE751FA4F75
:103D900080809180A280B380EF85F889E40FF51FC1
:103DA000EE0FFF1FEE0FFF1FE751FA4FA501940121
:103DB00060817181828193810E9406F32B853C850D
:103DC0004D855E850E9401F4A30192010E9416EFC9
:103DD000A50194010E9407F3A70196010E9406F332
:103DE0004B015C01EB89FC89EE0FFF1FEE0FFF1FFB
:103DF000E352F64E29813A814B815C816081718169
:103E0000828193810E9406F39B01AC01C501B4013C
:103E10000E9401F44B015C0129813A814B815C8154
:103E20006D817E818F8198850E9406F39B01AC0194
:103E3000C501B4010E9416EFA70196010E9407F385
:103E4000A989BA892D913D914D915C910E9416EFFF
:103E50002091E5053091E6054091E7055091E80590
:103E60000E9407F364960FB6F894DEBF0FBECDBF75
:103E7000DF91CF911F910F91FF90EF90DF90CF9046
:103E8000BF90AF909F908F907F906F905F904F907A
:103E90003F902F90089567FFD8CE60E0D6CE67FFA1
:103EA000FCCE60E0FACE90916F0081E091FD02C0FF
:103EB00080E0089590916F009D7F90936F0008952A
:103EC0008F929F92AF92BF92CF92DF92EF92FF922A
:103ED000CF93DF93EC018090F60B9090F70BA090BE
:103EE000F80BB090F90B20E030E0A901C501B40156
:103EF0000E94B0EE882309F454C0C880D980EA80BB
:103F0000FB80A7019601C501B4010E94B0EE18160E
:103F10000CF04CC02091ED0B3091EE0B4091EF0B6B
:103F20005091F00BC701B6010E94B0EE882331F129
:103F3000C092ED0BD092EE0BE092EF0BF092F00BF3
:103F40002091F10B3091F20B4091F30B5091F40B57
:103F5000688179818A819B810E9416EF9B01AC0167
:103F600060E070E080E89FE30E9406F36093300217
:103F70007093310280933202909333026091300249
:103F8000709131028091320290913302DF91CF9192
:103F9000FF90EF90DF90CF90BF90AF909F908F9069
:103FA000089560E070E080E89FE3F0CF60E070E0AB
:103FB000CB01ECCF0F931F93CF93DF9300D01F92D1
:103FC000CDB7DEB78C0108960E94601F69837A83A3
:103FD0008B839C83BE016F5F7F4FC8010E94E51DEC
:103FE0009B01AC01F80160857185828593850E94F3
:103FF00006F3F80160877187828793870F900F908F
:104000000F900F90DF91CF911F910F910895CF9353
:10401000DF9324E0829FC0011124EC01C650D44FED
:10402000FC01EE53F84F8B529A4FDC012D913D91DC
:104030004D915C9160817181828193810E9407F32F
:10404000688379838A839B83DF91CF910895CF9290
:10405000DF92EF92FF921F93CF93DF9320912B0279
:10406000222309F48DC0EC011091E91210FF2CC03D
:10407000C0901302D0901402E0901502F090160246
:10408000288139814A815B81C701B6010E9467F5A9
:10409000181624F4C882D982EA82FB82C0901F02DB
:1040A000D0902002E0902102F090220228813981F4
:1040B0004A815B81C701B6010E94B0EE87FF04C050
:1040C000C882D982EA82FB8211FF2CC0C0901702FD
:1040D000D0901802E0901902F0901A022C813D81D4
:1040E0004E815F81C701B6010E9467F5181624F45E
:1040F000CC82DD82EE82FF82C0902302D090240227
:10410000E0902502F09026022C813D814E815F8156
:10411000C701B6010E94B0EE87FF04C0CC82DD82E9
:10412000EE82FF8212FF2CC0C0901B02D0901C02B6
:10413000E0901D02F0901E02288539854A855B8536
:10414000C701B6010E9467F5181624F4C886D986FF
:10415000EA86FB86C0902702D0902802E0902902D0
:10416000F0902A02288539854A855B85C701B6010A
:104170000E94B0EE87FF04C0C886D986EA86FB8617
:10418000DF91CF911F91FF90EF90DF90CF90089536
:10419000CF93DF93FC0126853785D901A058BF4F07
:1041A0008D919C91119701968F779927E901CE57B0
:1041B000DF4F4881598148175907D9F34D915C91D8
:1041C000240F351FD9016C93A685B785A058BF4F22
:1041D00011969C938E93C689D7892881378D81E06B
:1041E00090E0A0E0B0E004C0880F991FAA1FBB1F99
:1041F0003A95D2F7822B888381E081A30488F589E0
:10420000E02D80818064808381E090E0DF91CF9118
:104210000895FC0191A1992329F0A489B5898C9175
:1042200086FFF9CF11A20895DC011C968D919C9117
:10423000FC01E058FF4F408151813296208131814D
:104240004217530781F020813181820F931FDC01D7
:104250008C91208131812F5F3F4F2F77332731831E
:10426000208390E008958FEF9FEF0895FC018485EF
:104270009585FC01E058FF4F4081518132962081A5
:1042800031814217530741F020813181820F931F02
:10429000FC01808190E008958FEF9FEF0895FC016D
:1042A00024853585F901E058FF4F808191812E5793
:1042B0003F4FF9012081318180589F4F821B930B22
:1042C00060E870E00E943BF6089590E080E0089579
:1042D000CF93DF93FB01D90190819130E9F09430C5
:1042E000A8F0945090832D913C911197B9016F5F84
:1042F0007F4F11967C936E93420F531FEA01888380
:104300008D919C918F37910564F406C08C3539F4FA
:104310009C5F9083943039F7DF91CF9108958B3370
:1043200011F781E08083F8CF9091EC12E92FF0E053
:10433000EF53F64E80839F5F983040F49093EC12D9
:104340008091ED128F5F8093ED1208951092EC1220
:10435000F7CF282F90917805833021F495FD0FC079
:1043600094FD0FC0892F90E0B0E0A0E004C0B695A6
:10437000A795979587952A95D2F78170089581E042
:10438000089580E00895CF92DF92EF92FF92CF934D
:10439000DF93EC016A017B0127E137EB41ED58EB3C
:1043A000CB01B6010E9467F587FD23C027E030E00E
:1043B00047E553E4C701B6010E94B0EE1816CCF0F1
:1043C000C880D980EA80FB8022ED30E040EA50ECE2
:1043D000C701B6010E9467F587FD0BC0C1E027E069
:1043E00030E047E553E4C701B6010E94B0EE18166D
:1043F0000CF4C0E08C2FDF91CF91FF90EF90DF9015
:10440000CF9008952FEB280F2A3108F042C0E22FF9
:10441000F0E08091940590919505A0919605B0915A
:10442000970504C0B695A795979587952A95D2F7D5
:1044300080FD02C081700895E658FA4FE081EE23B6
:1044400029F18091EB0B9091EC0BE80FF92FF11D06
:10445000808190ED980F9A3030F08E3251F4818146
:1044600080538A3098F4F0936805E093670581E003
:1044700008958D3211F08B3249F4818190ED980FBF
:104480009A3088F38E3211F48281EACFF0E0E0E0D6
:10449000EACF80E00895EF92FF920F931F93CF939E
:1044A000DF9309EE15E0C5E07801D5E0F7016191F1
:1044B0007191819191917F0120E030E0A9010E94EA
:1044C000B0EE81110EC0D15089F7C1500C5E1F4F64
:1044D000C111EACFDF91CF911F910F91FF90EF9023
:1044E000089581E0F7CF8EBD0DB407FEFDCF08958E
:1044F000909164009B7F90936400982F906A9695AA
:104500009CBD80FD03C091E0863009F490E09DBD24
:1045100008950F931F9380916206813019F50E94D0
:104520004ACE0091560610915706209158063091B8
:104530005906601B710B820B930B28EE33E040E0B1
:1045400050E00E94A3F260915A0670915B06809140
:104550005C0690915D06620F731F841F951F1F916B
:104560000F91089560915E0670915F0680916006DC
:1045700090916106D6CF80916206813079F482E015
:10458000809362060E944ACE60935E0670935F0637
:10459000809360069093610681E0089580E008951D
:1045A00061E0FC0180810E9437CC8FEF0C94732274
:1045B0002F923F924F925F926F927F928F929F9233
:1045C000AF92BF92CF92DF92EF92FF920F931F9321
:1045D000CF93DF9300D000D0CDB7DEB70E944ACE94
:1045E0000091A1161091A2162091A3163091A41645
:1045F000011511052105310509F00CC32091A716FD
:10460000222309F44AC0E091A51621502093A71651
:1046100021E02E0F2093A5163091A816231302C077
:104620001092A51624E0E29FF0011124E755F94EFF
:10463000008111812281338100939D1610939E1673
:1046400020939F163093A016600F711F811D911D3E
:104650006093A1167093A2168093A3169093A4164C
:1046600080919F169091A016892BB9F08FB78E83F9
:10467000F89420909D1630909E162101712C612C8B
:1046800000919F161091A016809152028F31F1F087
:104690008F3F09F496C09E819FBF26960FB6F8946F
:1046A000DEBF0FBECDBFDF91CF911F910F91FF9065
:1046B000EF90DF90CF90BF90AF909F908F907F90C2
:1046C0006F905F904F903F902F900895EAE7F7E248
:1046D00094919D8397FDDFCF61E08FE10E9404CD2F
:1046E0008D81882321F09D81923009F0BDC1480160
:1046F000B12CA12C60E072E18AE790E0A50198015D
:104700000E94C5F229833A834B835C8369017A0155
:1047100021E0C21AD108E108F1088FEFC816D104D0
:10472000E104F10409F00CF46FC160E472E48FE07D
:1047300090E0A50198010E94C5F269017A0191E01B
:10474000C91AD108E108F1082D81223009F010C101
:104750008FEFC816D104E104F10409F00CF4C0C2D3
:1047600060E970ED83E090E0A50198010E94C5F238
:1047700069017A0191E0C91AD108E108F10883E0E2
:104780002FEFC216D104E104F10409F00CF4A1C228
:1047900068E478EE81E090E0A50198010E94C5F2FE
:1047A00069017A0181E0C81AD108E108F1089FEF98
:1047B000C916D104E104F10411F00CF0FDC084E04D
:1047C00088C28FE180935202EAE7F7E224912D83B9
:1047D000822F2F3F09F45FCF223009F469C060F4C3
:1047E000222381F1213009F445C087FD54CF61E0D7
:1047F0008FE10E9404CD77CF9D81943009F49AC057
:1048000008F478C0953089F71092200110922101A8
:104810008091210188608093210180912101816034
:1048200080932101E7ECF6E2E491F0E0EE0FFF1F48
:10483000EC58F94D85919491EDE0F7E2E491E09325
:104840009D054ACF14BC15BC84B5826084BD85B576
:10485000816085BDE7ECF6E2E491F0E0EE0FFF1F2A
:10486000EC58F94D85919491EDE0F7E2E491E093F5
:10487000A10532CF109280001092810080918100BA
:1048800088608093810080918100816080938100A5
:10489000E7ECF6E2E491F0E0EE0FFF1FEC58F94D83
:1048A00085919491EDE0F7E2E491E093A00514CFB7
:1048B0001092B0001092B1008091B000826080939D
:1048C000B0008091B10081608093B100E7ECF6E226
:1048D000E491F0E0EE0FFF1FEC58F94D85919491B3
:1048E0009093A4078093A307EDE0F7E2E491E093AF
:1048F000A507F2CE10929000109291008091910045
:1049000088608093910080919100816080939100F4
:10491000E7ECF6E2E491F0E0EE0FFF1FEC58F94D02
:1049200085919491EDE0F7E2E491E0939F0523E017
:104930002D83D2CE1092A0001092A1008091A100F0
:1049400088608093A1008091A10081608093A10084
:10495000E7ECF6E2E491F0E0EE0FFF1FEC58F94DC2
:1049600085919491EDE0F7E2E491E0939E05B4CE59
:104970008FEFC816D104E104F10409F00CF472C001
:1049800068E478EE81E090E0A50198010E94C5F20C
:1049900069017A0191E0C91AD108E108F1082D8175
:1049A000222309F462C12FEFC216D104E104F104FD
:1049B00011F00CF063C103CF64E274EF80E090E08B
:1049C000A50194010E94C5F269017A0181E0C81A2B
:1049D000D108E108F10885E09FEFC916D104E10490
:1049E000F10409F008F475C162E17AE780E090E033
:1049F000A50194010E94C5F269017A0181E0C81AFB
:104A0000D108E108F1084CC181E02D81211161C17B
:104A100095B5987F892B85BD2FEF3FEFA9014528DC
:104A20004628472809F048C09D81923009F4E2C029
:104A30000CF0C9C0992309F4CEC0913009F02BCEF7
:104A4000D0928900C09288002093AE053093AF05C4
:104A50004093B0055093B10580916F0082608093C0
:104A60006F0019CE82E0D1CFB12CA12C60E072E1B1
:104A70008AE790E0A50198010E94C5F269017A01D8
:104A800081E0C81AD108E108F108C114D10491E00D
:104A9000E906F104F4F491E02D81213059F580917B
:104AA0008100887F892B809381002FEF3FEFA90140
:104AB00045284628472821F29801220F331FD101AB
:104AC0000E94F7F228EE33E040E050E00E94A3F2AB
:104AD000ABCF68E478EE81E090E0A50198010E94F8
:104AE000C5F269017A0181E0C81AD108E108F1082C
:104AF00093E0D2CF8D818330F9F480919100887F4B
:104B0000892B809391002FEF3FEFA901452846287C
:104B1000472891F6D0929900C09298002093AA0558
:104B20003093AB054093AC055093AD058091710077
:104B3000826080937100AFCD2D81243001F580918A
:104B4000A100887F892B8093A1002FEF3FEFA9015F
:104B500045284628472809F0AFCFD092A900C09237
:104B6000A8002093A6053093A7054093A80550936D
:104B7000A905809172008260809372008CCD8D8136
:104B8000853009F049CF80912101887F892B80935E
:104B900021012FEF3FEFA90145284628472809F0BA
:104BA0008BCFD0922901C09228012093A205309387
:104BB000A3054093A4055093A505809173008260DE
:104BC0008093730068CD8D81843039F20CF4A2CFCC
:104BD000853039F360CDC7BC2093B2053093B3055F
:104BE0004093B4055093B50580916E008260809328
:104BF0006E0051CDC092B3002093A6073093A70753
:104C00004093A8075093A907809170008260809319
:104C1000700041CD601B710B820B930B97FD3DCD56
:104C200046981092A1161092A2161092A3161092F6
:104C3000A41633CDC980DA80EB80FC809AE0F5942D
:104C4000E794D794C7949A95D1F721E0C21AD10876
:104C5000E108F10885E0DCCE8FEFC816D104E1044D
:104C6000F10409F038F784E0D3CE83E09FEFC91652
:104C7000D104E104F10409F00CF4CACE62E17AE750
:104C800080E090E0A50194010E94C5F269017A01DB
:104C900081E0C81AD108E108F1089D819923E1F269
:104CA00086E02FEFC216D104E104F10491F088F000
:104CB000C980DA80EB80FC808AE0F594E794D79491
:104CC000C7948A95D1F791E0C91AD108E108F10893
:104CD00087E09091B100987F892B8093B1009CCEA2
:104CE00082E0F7CFAF92BF92CF92DF92EF92FF9226
:104CF0000F931F93CF93DF93C1EAD2E101E51CE04C
:104D000081EBA82E82E1B82EC12CD12C7601C39460
:104D100069917991899199910E94B5EE2889398993
:104D20004A895B890E9416EF0E947AF4F801619328
:104D30007193819391938F01C616D706E806F90601
:104D400010F46B017C01AC16BD0611F76FEF7FEF1D
:104D5000CB01A70196010E94A3F22093610C30932E
:104D6000620C4093630C5093640C23EF34E045E3F2
:104D70005FE360914D0C70914E0C80914F0C9091BF
:104D8000500C0E9416EF6B017C016091AD12709186
:104D9000AE128091AF129091B0120E94B5EE9B01BD
:104DA000AC01C701B6010E9416EF29E732E84AE5D7
:104DB00050E40E9416EF0E94B5F56093650C709365
:104DC000660C8093670C9093680CDF91CF911F91D4
:104DD0000F91FF90EF90DF90CF90BF90AF9008952C
:104DE0000F931F93CF93DF9305EB12E1C9E6DCE04D
:104DF000F80121913191419151918F0160E070E072
:104E000080E89FE30E9401F46993799389939993D1
:104E1000FCE0C937DF0761F70E9449CADF91CF91F3
:104E20001F910F910C947226CF92DF92EF92FF9216
:104E30000F931F93C12CD12C76018C012BE632E00D
:104E400047E652E063E672E08FE592E00E9466C9B1
:104E50001F910F91FF90EF90DF90CF9008952F92C8
:104E60003F924F925F926F927F928F929F92AF92FA
:104E7000BF92CF92DF92EF92FF920F931F93CF9347
:104E8000DF93D62FC72FFC0180809180A280B38052
:104E9000C501B40120E831E541E050E00E94A3F2F1
:104EA000C9016DE671E00E9427F66B017C01C50126
:104EB000B40120E13EE040E050E00E94A3F2CA01CC
:104EC000B90128E130E040E050E00E94A3F2362E24
:104ED000272E062F172F8CE3482E512C612C712C76
:104EE000C501B401A30192010E94A3F2B62EA72E20
:104EF000CA01B901A30192010E94A3F2CB01C1141E
:104F0000D10479F1AF92BF927F936F932F923F922A
:104F1000FF92EF92DF92CF928AEC91E19F938F9371
:104F2000CF93DF930E9480EE8DB79EB70E960FB69B
:104F3000F8949EBF0FBE8DBF8D2F9C2FDF91CF9118
:104F40001F910F91FF90EF90DF90CF90BF90AF90A7
:104F50009F908F907F906F905F904F903F902F9099
:104F60000895E114F104C9F0AF92BF927F936F935B
:104F70002F923F92FF92EF928AEB91E19F938F9352
:104F8000CF93DF930E9480EEEDB7FEB73C960FB64D
:104F9000F894FEBF0FBEEDBFCFCF012BB9F0AF929B
:104FA000BF927F936F932F923F928EEA91E19F93EE
:104FB0008F93CF93DF930E9480EE8DB79EB70A96B2
:104FC0000FB6F8949EBF0FBE8DBFB6CF892BA9F048
:104FD000AF92BF927F936F9386EA91E19F938F93F5
:104FE000CF93DF930E9480EEEDB7FEB738960FB6F1
:104FF000F894FEBF0FBEEDBF9FCFAF92BF9282EA83
:1050000091E19F938F93CF93DF930E9480EE0F9057
:105010000F900F900F900F900F908ECF809167059B
:1050200090916805009731F04AE050E070E060E050
:105030000C9416ED60E070E0CB0108958091670557
:1050400090916805009731F04AE050E070E060E030
:105050000C94E8EB60E070E0CB0108950E941E28FC
:10506000CB0108950F931F93CF9380916705909183
:1050700068050097E9F0FC018F01C1912C2F2F7D6D
:1050800081F0C53411F0C536B9F7F801108270E02F
:1050900060E00E948AEAF801C083CF911F910F91CE
:1050A000089570E060E0CF911F910F910C948AEA0F
:1050B00060E070E0CB01F1CF80910A1B83FF03C059
:1050C000846080930A1B0895FC0180818823F9F095
:1050D000853EE9F08E32D9F08091060C8E32B9F01F
:1050E0009385892F8A7099F4987121E0903109F0A5
:1050F00020E080910A1B20FB84F980930A1B9031E9
:1051000041F08085873419F481858E3711F480E071
:10511000089581E00895FC0120E03EE2DB014D911D
:10512000BD01403249F0283011F430833196DB0163
:1051300011974C91408331962F5F2B3079F7108275
:1051400008950F930FB70F9300916E000B7F00939C
:105150006E0078940F930BB70F930CB70F921F92BA
:105160002F933F934F935F936F937F938F939F936F
:10517000AF93BF93EF93FF9311240E94CA45FF9111
:10518000EF91BF91AF919F918F917F916F915F91BF
:105190004F913F912F911F900F900CBF0F910BBF1C
:1051A0000F910460F89400936E000F910FBF0F9160
:1051B0001895CF93DF93C0913E0CD0913F0C209770
:1051C00029F160913A0C70913B0C80913C0C9091CC
:1051D0003D0C0E9473F46E5F7F4F24976C177D0720
:1051E000ACF470931407609313070E944ACE605A80
:1051F00075418F4F9F4F60931507709316078093EB
:10520000170790931807DF91CF9108951092150713
:10521000109216071092170710921807F4CF1092E9
:105220002B0780915B0290915C020F97181619066C
:1052300014F490E080E090931116809310160E9471
:1052400056CE10923F0C10923E0C0E94D9288091AD
:105250005B0290915C020F971816190614F490E007
:1052600080E090931116809310160E9456CE1092F3
:1052700012162C9810923F0C10923E0C1092400C7B
:105280008091020180728093000108958F929F9215
:10529000AF92BF92CF92DF92EF92FF920F931F9344
:1052A000CF93DF93B0E4A0E06A2F70E0AB014B0F27
:1052B000511D55954795411119C0E3E0F3E2659101
:1052C0007491072E000C880B990B0E94B7EEDF91AA
:1052D000CF911F910F91FF90EF90DF90CF90BF90F3
:1052E000AF909F908F900895B42FE0CFA41711F046
:1052F000B41303C0EFEFF3E2E2CF9A01215031097A
:10530000220F331F220F331FF901EF5FFC4DE59091
:10531000F490F901EB5FFC4DC591D4918E159F057A
:105320001CF3A42FC817D9070CF4BECFF901ED5F09
:10533000FC4D05911491F901E95FFC4DC590D490A5
:10534000BC016E197F09072E000C880B990B0E9477
:10535000B7EE4B015C01B601601B710B072E000C10
:10536000880B990B0E94B7EE9B01AC01C501B401FB
:105370000E9416EF4B015C01BE016E197F09072EDA
:10538000000C880B990B0E94B7EE9B01AC01C50184
:10539000B4010E9401F46B017C01B801110F880B6C
:1053A000990B0E94B7EE9B01AC01C701B6010E94A8
:1053B00007F38DCFCF93DF93C8E0D6E18A819B813D
:1053C0000E94DCB46C837D838E839F83C6E3DCE024
:1053D0008A819B810E9446296C837D838E839F8373
:1053E000A89510922C07DF91CF910895BC012091D0
:1053F000BB063091BC064091BB065091BC062417F9
:10540000350731F481E02617370709F080E0089569
:105410009A01F1CF0F930FB70F9300916E000F9386
:105420000B7F00936E0000916F000D7F00936F0063
:105430000F930BB70F930CB70F921F922F933F93BD
:105440004F935F936F937F938F939F93AF93BF938C
:10545000EF93FF9311240E943C2EFF91EF91BF9197
:10546000AF919F918F917F916F915F914F913F91FC
:105470002F911F900F900CBF0F910BBF0F910260E7
:10548000F89400936F000F9100936E000F910FBF7F
:105490000F9118958091C00780FF1EC089988FEFEB
:1054A00080936C068091C007869580FF18C08F9A04
:1054B0008FEF80936D068091C0078695869580FF5B
:1054C00011C080910B018095827080930901439AED
:1054D0008FEF80936E060895899A81E0E1CF8F98CF
:1054E00081E0E7CF80910B0182708093090143989E
:1054F00081E0EFCF20915B0230915C022F503109A7
:10550000821793070CF49C01309311162093101608
:105510000C9456CE0F931F93CF93DF9300D01F921E
:10552000CDB7DEB72091F50B2223E1F08C01089670
:105530000E94601F69837A838B839C83BE016F5FA7
:105540007F4FC8010E94E51D9B01AC01F8016085F9
:105550007185828593850E9407F3F80160877187C2
:10556000828793870F900F900F900F90DF91CF91CC
:105570001F910F9108952F923F924F925F926F92D9
:105580007F928F929F92AF92BF92CF92DF92EF92D3
:10559000FF920F931F93CF93DF93CDB7DEB76C9736
:1055A0000FB6F894DEBF0FBECDBF8C015B015A83EE
:1055B0004983FC01EF5AFF4F2081318142815381A1
:1055C00029873A874B875C87CA01B9010E94B5EEEB
:1055D0006B017C01D5012D913D914D915C910E9413
:1055E00016EF0E94E5F32B013C01E981FA8120814D
:1055F000318142815381C701B6010E9416EF0E949A
:10560000E5F34B015C01C301B2010E947AF4698B9E
:105610007A8B8B8B9C8B683771058105910540F4E3
:1056200028E730E040E050E0298B3A8B4B8B5C8BD5
:10563000C501B4010E947AF46D877E878F87988BAD
:10564000683771058105910540F448E750E060E056
:1056500070E04D875E876F87788BF801E35AFF4FC4
:105660004080518062807380C301B2010E94B7EE16
:1056700069837A838B839C8369897A898B899C89E6
:105680000E94B5EE6D8B7E8B8F8B988F20E030E083
:10569000A90169817A818B819C810E94B0EE882367
:1056A00009F4E1C1A7019601C701B6010E9416EFF6
:1056B0004B015C012D893E894F89588DCA01B90182
:1056C0000E9416EF9B01AC01C501B4010E9406F3D4
:1056D0004B015C0129813A814B815C81CA01B9018E
:1056E0000E9407F39B01AC01C501B4010E9401F4C3
:1056F0000E94E5F30E947AF46D837E838F839887FE
:1057000066277727CB0164197509860997090E94D6
:10571000B7EE4B015C016D857E858F8598890E946F
:10572000B5EE2B013C0120E030E0A901C501B40138
:105730000E94B0EE882309F49AC1A3019201C3012B
:10574000B2010E9416EF698F7A8F8B8F9C8FA70111
:105750009601C701B6010E9416EF9B01AC01698D4D
:105760007A8D8B8D9C8D0E9406F36B017C01A501C7
:105770009401C501B4010E9407F39B01AC01C7016C
:10578000B6010E9401F40E94A9F4D80195968D906B
:105790009D90AD90BC909897750164012D813E81DC
:1057A0004F815885C21AD30AE40AF50A0E947AF496
:1057B000C61AD70AE80AF90AF7FE8EC02D893E8973
:1057C0004F89588DCA01B9010E9416EF6B017C0107
:1057D00029813A814B815C81CA01B9010E9407F39A
:1057E00069877A878B879C8720E030E0A9016981EF
:1057F0007A818B819C810E94B0EE882309F43BC1A1
:10580000C501B4010E94B5EE29853A854B855C85BA
:105810000E9416EFA70196010E9406F36D837E8316
:105820008F839887A3019201C301B2010E9416EFF2
:105830009B01AC016D817E818F8198850E9407F369
:105840002B013C0120E030E040E850E469817A819E
:105850008B819C810E9416EF9B01AC01C301B201B8
:105860000E9401F40E94E5F32B013C0120E030E0AE
:10587000A9010E9467F518161CF0412C512C320129
:10588000C301B2010E947AF46D837E838F8398876F
:1058900086169706A806B90620F48D829E82AF82EE
:1058A000B8866D817E818F8198850E94B5EE2985AD
:1058B0003A854B855C850E9416EFA70196010E94F0
:1058C00007F30E94B5F50E947AF469877A878B877F
:1058D0009C87C12CD12C760169857A858B859C8526
:1058E00029893A894B895C89621B730B840B950B60
:1058F0000E94B5EE29813A814B815C810E9401F4BE
:1059000020E034E244EF59E40E9416EF0E947AF45A
:105910004B015C0169857A858B859C852D853E854B
:105920004F855889621B730B840B950B0E94B5EE53
:1059300029813A814B815C810E9401F420E034E2AC
:1059400044EF59E40E9416EF0E947AF42B013C01C7
:105950003FE683169104A104B10408F090C0F4015D
:10596000EE0FFF1FEE0FFF1FE652F84E8591959147
:10597000A591B4918983292E3A2EBD8B4FE644160A
:1059800051046104710408F083C0F201EE0FFF1F9F
:10599000EE0FFF1FE652F84E4591559165917491B7
:1059A0009A01CB014D815E816F817885D8019996EE
:1059B0004D935D936D937C939C974C0D5D1D6E1D77
:1059C0007F1DF80145A756A767A770ABEB5AFF4F9D
:1059D00049895A896B897C894083518362837383A7
:1059E000D5968D929D92AD92BC92D897F80141AE1A
:1059F00052AE63AE74AEFD964981408321823282FD
:105A00005D895383349620833183828393836985B0
:105A10007A858B859C85D1966D937D938D939C9390
:105A2000D49778962D853E854F855889208331837C
:105A3000428353836C960FB6F894DEBF0FBECDBF82
:105A4000DF91CF911F910F91FF90EF90DF90CF905A
:105A5000BF90AF909F908F907F906F905F904F908E
:105A60003F902F90089560E070E0CB0141CE60E060
:105A700070E0CB0188CE60E070E0CB01F3CEC501D1
:105A8000B4010E944B1C6983272E382E9D8B76CF44
:105A9000C301B2010E944B1C9B0184CFEFE6F0E0F2
:105AA0008081826080830895CF93C82F0E94531F06
:105AB00094E0C99F90011124F901E254F94F265353
:105AC000394FD9014D915D916D917C914083518306
:105AD0006283738391E09093BD06882319F0CF9180
